{
  "_format": "hh-sol-artifact-1",
  "contractName": "DalleArt",
  "sourceName": "contracts/DalleArt.sol",
  "abi": [
    {
      "inputs": [],
      "stateMutability": "payable",
      "type": "constructor"
    },
    {
      "anonymous": false,
      "inputs": [
        {
          "indexed": true,
          "internalType": "address",
          "name": "owner",
          "type": "address"
        },
        {
          "indexed": true,
          "internalType": "address",
          "name": "approved",
          "type": "address"
        },
        {
          "indexed": true,
          "internalType": "uint256",
          "name": "tokenId",
          "type": "uint256"
        }
      ],
      "name": "Approval",
      "type": "event"
    },
    {
      "anonymous": false,
      "inputs": [
        {
          "indexed": true,
          "internalType": "address",
          "name": "owner",
          "type": "address"
        },
        {
          "indexed": true,
          "internalType": "address",
          "name": "operator",
          "type": "address"
        },
        {
          "indexed": false,
          "internalType": "bool",
          "name": "approved",
          "type": "bool"
        }
      ],
      "name": "ApprovalForAll",
      "type": "event"
    },
    {
      "anonymous": false,
      "inputs": [
        {
          "indexed": true,
          "internalType": "address",
          "name": "previousOwner",
          "type": "address"
        },
        {
          "indexed": true,
          "internalType": "address",
          "name": "newOwner",
          "type": "address"
        }
      ],
      "name": "OwnershipTransferred",
      "type": "event"
    },
    {
      "anonymous": false,
      "inputs": [
        {
          "indexed": true,
          "internalType": "address",
          "name": "from",
          "type": "address"
        },
        {
          "indexed": true,
          "internalType": "address",
          "name": "to",
          "type": "address"
        },
        {
          "indexed": true,
          "internalType": "uint256",
          "name": "tokenId",
          "type": "uint256"
        }
      ],
      "name": "Transfer",
      "type": "event"
    },
    {
      "inputs": [
        {
          "internalType": "address",
          "name": "to",
          "type": "address"
        },
        {
          "internalType": "uint256",
          "name": "tokenId",
          "type": "uint256"
        }
      ],
      "name": "approve",
      "outputs": [],
      "stateMutability": "nonpayable",
      "type": "function"
    },
    {
      "inputs": [
        {
          "internalType": "address",
          "name": "owner",
          "type": "address"
        }
      ],
      "name": "balanceOf",
      "outputs": [
        {
          "internalType": "uint256",
          "name": "",
          "type": "uint256"
        }
      ],
      "stateMutability": "view",
      "type": "function"
    },
    {
      "inputs": [
        {
          "internalType": "uint256",
          "name": "tokenId",
          "type": "uint256"
        }
      ],
      "name": "getApproved",
      "outputs": [
        {
          "internalType": "address",
          "name": "",
          "type": "address"
        }
      ],
      "stateMutability": "view",
      "type": "function"
    },
    {
      "inputs": [
        {
          "internalType": "address",
          "name": "owner",
          "type": "address"
        },
        {
          "internalType": "address",
          "name": "operator",
          "type": "address"
        }
      ],
      "name": "isApprovedForAll",
      "outputs": [
        {
          "internalType": "bool",
          "name": "",
          "type": "bool"
        }
      ],
      "stateMutability": "view",
      "type": "function"
    },
    {
      "inputs": [],
      "name": "isPublicMintEnabled",
      "outputs": [
        {
          "internalType": "bool",
          "name": "",
          "type": "bool"
        }
      ],
      "stateMutability": "view",
      "type": "function"
    },
    {
      "inputs": [],
      "name": "maxPerWallet",
      "outputs": [
        {
          "internalType": "uint256",
          "name": "",
          "type": "uint256"
        }
      ],
      "stateMutability": "view",
      "type": "function"
    },
    {
      "inputs": [],
      "name": "maxSupply",
      "outputs": [
        {
          "internalType": "uint256",
          "name": "",
          "type": "uint256"
        }
      ],
      "stateMutability": "view",
      "type": "function"
    },
    {
      "inputs": [],
      "name": "mint",
      "outputs": [],
      "stateMutability": "payable",
      "type": "function"
    },
    {
      "inputs": [],
      "name": "mintPrice",
      "outputs": [
        {
          "internalType": "uint256",
          "name": "",
          "type": "uint256"
        }
      ],
      "stateMutability": "view",
      "type": "function"
    },
    {
      "inputs": [],
      "name": "name",
      "outputs": [
        {
          "internalType": "string",
          "name": "",
          "type": "string"
        }
      ],
      "stateMutability": "view",
      "type": "function"
    },
    {
      "inputs": [],
      "name": "owner",
      "outputs": [
        {
          "internalType": "address",
          "name": "",
          "type": "address"
        }
      ],
      "stateMutability": "view",
      "type": "function"
    },
    {
      "inputs": [
        {
          "internalType": "uint256",
          "name": "tokenId",
          "type": "uint256"
        }
      ],
      "name": "ownerOf",
      "outputs": [
        {
          "internalType": "address",
          "name": "",
          "type": "address"
        }
      ],
      "stateMutability": "view",
      "type": "function"
    },
    {
      "inputs": [],
      "name": "renounceOwnership",
      "outputs": [],
      "stateMutability": "nonpayable",
      "type": "function"
    },
    {
      "inputs": [
        {
          "internalType": "address",
          "name": "from",
          "type": "address"
        },
        {
          "internalType": "address",
          "name": "to",
          "type": "address"
        },
        {
          "internalType": "uint256",
          "name": "tokenId",
          "type": "uint256"
        }
      ],
      "name": "safeTransferFrom",
      "outputs": [],
      "stateMutability": "nonpayable",
      "type": "function"
    },
    {
      "inputs": [
        {
          "internalType": "address",
          "name": "from",
          "type": "address"
        },
        {
          "internalType": "address",
          "name": "to",
          "type": "address"
        },
        {
          "internalType": "uint256",
          "name": "tokenId",
          "type": "uint256"
        },
        {
          "internalType": "bytes",
          "name": "data",
          "type": "bytes"
        }
      ],
      "name": "safeTransferFrom",
      "outputs": [],
      "stateMutability": "nonpayable",
      "type": "function"
    },
    {
      "inputs": [
        {
          "internalType": "address",
          "name": "operator",
          "type": "address"
        },
        {
          "internalType": "bool",
          "name": "approved",
          "type": "bool"
        }
      ],
      "name": "setApprovalForAll",
      "outputs": [],
      "stateMutability": "nonpayable",
      "type": "function"
    },
    {
      "inputs": [
        {
          "internalType": "string",
          "name": "_baseTokenUri",
          "type": "string"
        }
      ],
      "name": "setBaseTokenUri",
      "outputs": [],
      "stateMutability": "nonpayable",
      "type": "function"
    },
    {
      "inputs": [
        {
          "internalType": "bool",
          "name": "_isPublicMintEnabled",
          "type": "bool"
        }
      ],
      "name": "setIsPublicMintEnabled",
      "outputs": [],
      "stateMutability": "nonpayable",
      "type": "function"
    },
    {
      "inputs": [
        {
          "internalType": "bytes4",
          "name": "interfaceId",
          "type": "bytes4"
        }
      ],
      "name": "supportsInterface",
      "outputs": [
        {
          "internalType": "bool",
          "name": "",
          "type": "bool"
        }
      ],
      "stateMutability": "view",
      "type": "function"
    },
    {
      "inputs": [],
      "name": "symbol",
      "outputs": [
        {
          "internalType": "string",
          "name": "",
          "type": "string"
        }
      ],
      "stateMutability": "view",
      "type": "function"
    },
    {
      "inputs": [
        {
          "internalType": "uint256",
          "name": "_tokenId",
          "type": "uint256"
        }
      ],
      "name": "tokenURI",
      "outputs": [
        {
          "internalType": "string",
          "name": "",
          "type": "string"
        }
      ],
      "stateMutability": "view",
      "type": "function"
    },
    {
      "inputs": [],
      "name": "totalSupply",
      "outputs": [
        {
          "internalType": "uint256",
          "name": "",
          "type": "uint256"
        }
      ],
      "stateMutability": "view",
      "type": "function"
    },
    {
      "inputs": [
        {
          "internalType": "address",
          "name": "from",
          "type": "address"
        },
        {
          "internalType": "address",
          "name": "to",
          "type": "address"
        },
        {
          "internalType": "uint256",
          "name": "tokenId",
          "type": "uint256"
        }
      ],
      "name": "transferFrom",
      "outputs": [],
      "stateMutability": "nonpayable",
      "type": "function"
    },
    {
      "inputs": [
        {
          "internalType": "address",
          "name": "newOwner",
          "type": "address"
        }
      ],
      "name": "transferOwnership",
      "outputs": [],
      "stateMutability": "nonpayable",
      "type": "function"
    },
    {
      "inputs": [
        {
          "internalType": "address",
          "name": "",
          "type": "address"
        }
      ],
      "name": "walletMints",
      "outputs": [
        {
          "internalType": "uint256",
          "name": "",
          "type": "uint256"
        }
      ],
      "stateMutability": "view",
      "type": "function"
    },
    {
      "inputs": [],
      "name": "withdraw",
      "outputs": [],
      "stateMutability": "nonpayable",
      "type": "function"
    },
    {
      "inputs": [],
      "name": "withdrawWallet",
      "outputs": [
        {
          "internalType": "address payable",
          "name": "",
          "type": "address"
        }
      ],
      "stateMutability": "view",
      "type": "function"
    }
  ],
  "bytecode": "0x60806040526040518060400160405280600881526020017f44616c6c654172740000000000000000000000000000000000000000000000008152506040518060400160405280600281526020017f4441000000000000000000000000000000000000000000000000000000000000815250816000908051906020019062000088929190620001be565b508060019080519060200190620000a1929190620001be565b505050620000c4620000b8620000f060201b60201c565b620000f860201b60201c565b66470de4df820000600781905550600060088190555060076009819055506001600a81905550620002d3565b600033905090565b6000600660009054906101000a900473ffffffffffffffffffffffffffffffffffffffff16905081600660006101000a81548173ffffffffffffffffffffffffffffffffffffffff021916908373ffffffffffffffffffffffffffffffffffffffff1602179055508173ffffffffffffffffffffffffffffffffffffffff168173ffffffffffffffffffffffffffffffffffffffff167f8be0079c531659141344cd1fd0a4f28419497f9722a3daafe3b4186f6b6457e060405160405180910390a35050565b828054620001cc906200026e565b90600052602060002090601f016020900481019282620001f057600085556200023c565b82601f106200020b57805160ff19168380011785556200023c565b828001600101855582156200023c579182015b828111156200023b5782518255916020019190600101906200021e565b5b5090506200024b91906200024f565b5090565b5b808211156200026a57600081600090555060010162000250565b5090565b600060028204905060018216806200028757607f821691505b602082108114156200029e576200029d620002a4565b5b50919050565b7f4e487b7100000000000000000000000000000000000000000000000000000000600052602260045260246000fd5b6133e880620002e36000396000f3fe60806040526004361061019c5760003560e01c80636817c76c116100ec578063a22cb4651161008a578063d5abeb0111610064578063d5abeb0114610581578063e985e9c5146105ac578063f0293fd3146105e9578063f2fde38b146106265761019c565b8063a22cb465146104f2578063b88d4fde1461051b578063c87b56dd146105445761019c565b806385d178f4116100c657806385d178f4146104485780638da5cb5b1461047357806395652cfa1461049e57806395d89b41146104c75761019c565b80636817c76c146103c957806370a08231146103f4578063715018a6146104315761019c565b806318160ddd116101595780633ccfd60b116101335780633ccfd60b1461032157806342842e0e14610338578063453c2310146103615780636352211e1461038c5761019c565b806318160ddd146102a45780632373ac22146102cf57806323b872dd146102f85761019c565b80630116bc2d146101a157806301ffc9a7146101cc57806306fdde0314610209578063081812fc14610234578063095ea7b3146102715780631249c58b1461029a575b600080fd5b3480156101ad57600080fd5b506101b661064f565b6040516101c39190612851565b60405180910390f35b3480156101d857600080fd5b506101f360048036038101906101ee919061228e565b610662565b6040516102009190612851565b60405180910390f35b34801561021557600080fd5b5061021e610744565b60405161022b919061286c565b60405180910390f35b34801561024057600080fd5b5061025b60048036038101906102569190612325565b6107d6565b60405161026891906127cf565b60405180910390f35b34801561027d57600080fd5b5061029860048036038101906102939190612229565b61081c565b005b6102a2610934565b005b3480156102b057600080fd5b506102b9610b19565b6040516102c69190612aee565b60405180910390f35b3480156102db57600080fd5b506102f660048036038101906102f19190612265565b610b1f565b005b34801561030457600080fd5b5061031f600480360381019061031a9190612123565b610b44565b005b34801561032d57600080fd5b50610336610ba4565b005b34801561034457600080fd5b5061035f600480360381019061035a9190612123565b610c7d565b005b34801561036d57600080fd5b50610376610c9d565b6040516103839190612aee565b60405180910390f35b34801561039857600080fd5b506103b360048036038101906103ae9190612325565b610ca3565b6040516103c091906127cf565b60405180910390f35b3480156103d557600080fd5b506103de610d55565b6040516103eb9190612aee565b60405180910390f35b34801561040057600080fd5b5061041b600480360381019061041691906120be565b610d5b565b6040516104289190612aee565b60405180910390f35b34801561043d57600080fd5b50610446610e13565b005b34801561045457600080fd5b5061045d610e27565b60405161046a91906127ea565b60405180910390f35b34801561047f57600080fd5b50610488610e4d565b60405161049591906127cf565b60405180910390f35b3480156104aa57600080fd5b506104c560048036038101906104c091906122e0565b610e77565b005b3480156104d357600080fd5b506104dc610e95565b6040516104e9919061286c565b60405180910390f35b3480156104fe57600080fd5b50610519600480360381019061051491906121ed565b610f27565b005b34801561052757600080fd5b50610542600480360381019061053d9190612172565b610f3d565b005b34801561055057600080fd5b5061056b60048036038101906105669190612325565b610f9f565b604051610578919061286c565b60405180910390f35b34801561058d57600080fd5b5061059661101b565b6040516105a39190612aee565b60405180910390f35b3480156105b857600080fd5b506105d360048036038101906105ce91906120e7565b611021565b6040516105e09190612851565b60405180910390f35b3480156105f557600080fd5b50610610600480360381019061060b91906120be565b6110b5565b60405161061d9190612aee565b60405180910390f35b34801561063257600080fd5b5061064d600480360381019061064891906120be565b6110cd565b005b600b60009054906101000a900460ff1681565b60007f80ac58cd000000000000000000000000000000000000000000000000000000007bffffffffffffffffffffffffffffffffffffffffffffffffffffffff1916827bffffffffffffffffffffffffffffffffffffffffffffffffffffffff1916148061072d57507f5b5e139f000000000000000000000000000000000000000000000000000000007bffffffffffffffffffffffffffffffffffffffffffffffffffffffff1916827bffffffffffffffffffffffffffffffffffffffffffffffffffffffff1916145b8061073d575061073c82611151565b5b9050919050565b60606000805461075390612d45565b80601f016020809104026020016040519081016040528092919081815260200182805461077f90612d45565b80156107cc5780601f106107a1576101008083540402835291602001916107cc565b820191906000526020600020905b8154815290600101906020018083116107af57829003601f168201915b5050505050905090565b60006107e1826111bb565b6004600083815260200190815260200160002060009054906101000a900473ffffffffffffffffffffffffffffffffffffffff169050919050565b600061082782610ca3565b90508073ffffffffffffffffffffffffffffffffffffffff168373ffffffffffffffffffffffffffffffffffffffff161415610898576040517f08c379a000000000000000000000000000000000000000000000000000000000815260040161088f90612a6e565b60405180910390fd5b8073ffffffffffffffffffffffffffffffffffffffff166108b7611206565b73ffffffffffffffffffffffffffffffffffffffff1614806108e657506108e5816108e0611206565b611021565b5b610925576040517f08c379a000000000000000000000000000000000000000000000000000000000815260040161091c906129ce565b60405180910390fd5b61092f838361120e565b505050565b600b60009054906101000a900460ff16610983576040517f08c379a000000000000000000000000000000000000000000000000000000000815260040161097a9061290e565b60405180910390fd5b60095460016008546109959190612bc2565b11156109d6576040517f08c379a00000000000000000000000000000000000000000000000000000000081526004016109cd906129ae565b60405180910390fd5b6007543414610a1a576040517f08c379a0000000000000000000000000000000000000000000000000000000008152600401610a1190612a2e565b60405180910390fd5b6000600e60003373ffffffffffffffffffffffffffffffffffffffff1673ffffffffffffffffffffffffffffffffffffffff1681526020019081526020016000205414610a9c576040517f08c379a0000000000000000000000000000000000000000000000000000000008152600401610a939061294e565b60405180910390fd5b60006001600854610aad9190612bc2565b905060086000815480929190610ac290612da8565b91905055506001600e60003373ffffffffffffffffffffffffffffffffffffffff1673ffffffffffffffffffffffffffffffffffffffff16815260200190815260200160002081905550610b1633826112c7565b50565b60085481565b610b276112e5565b80600b60006101000a81548160ff02191690831515021790555050565b610b55610b4f611206565b82611363565b610b94576040517f08c379a0000000000000000000000000000000000000000000000000000000008152600401610b8b90612a8e565b60405180910390fd5b610b9f8383836113f8565b505050565b610bac6112e5565b6000600d60009054906101000a900473ffffffffffffffffffffffffffffffffffffffff1673ffffffffffffffffffffffffffffffffffffffff1647604051610bf4906127ba565b60006040518083038185875af1925050503d8060008114610c31576040519150601f19603f3d011682016040523d82523d6000602084013e610c36565b606091505b5050905080610c7a576040517f08c379a0000000000000000000000000000000000000000000000000000000008152600401610c7190612ace565b60405180910390fd5b50565b610c9883838360405180602001604052806000815250610f3d565b505050565b600a5481565b6000806002600084815260200190815260200160002060009054906101000a900473ffffffffffffffffffffffffffffffffffffffff169050600073ffffffffffffffffffffffffffffffffffffffff168173ffffffffffffffffffffffffffffffffffffffff161415610d4c576040517f08c379a0000000000000000000000000000000000000000000000000000000008152600401610d4390612a4e565b60405180910390fd5b80915050919050565b60075481565b60008073ffffffffffffffffffffffffffffffffffffffff168273ffffffffffffffffffffffffffffffffffffffff161415610dcc576040517f08c379a0000000000000000000000000000000000000000000000000000000008152600401610dc39061298e565b60405180910390fd5b600360008373ffffffffffffffffffffffffffffffffffffffff1673ffffffffffffffffffffffffffffffffffffffff168152602001908152602001600020549050919050565b610e1b6112e5565b610e25600061165f565b565b600d60009054906101000a900473ffffffffffffffffffffffffffffffffffffffff1681565b6000600660009054906101000a900473ffffffffffffffffffffffffffffffffffffffff16905090565b610e7f6112e5565b8181600c9190610e90929190611f00565b505050565b606060018054610ea490612d45565b80601f0160208091040260200160405190810160405280929190818152602001828054610ed090612d45565b8015610f1d5780601f10610ef257610100808354040283529160200191610f1d565b820191906000526020600020905b815481529060010190602001808311610f0057829003601f168201915b5050505050905090565b610f39610f32611206565b8383611725565b5050565b610f4e610f48611206565b83611363565b610f8d576040517f08c379a0000000000000000000000000000000000000000000000000000000008152600401610f8490612a8e565b60405180910390fd5b610f9984848484611892565b50505050565b6060610faa826118ee565b610fe9576040517f08c379a0000000000000000000000000000000000000000000000000000000008152600401610fe090612aae565b60405180910390fd5b600c610ff48361195a565b60405160200161100592919061278b565b6040516020818303038152906040529050919050565b60095481565b6000600560008473ffffffffffffffffffffffffffffffffffffffff1673ffffffffffffffffffffffffffffffffffffffff16815260200190815260200160002060008373ffffffffffffffffffffffffffffffffffffffff1673ffffffffffffffffffffffffffffffffffffffff16815260200190815260200160002060009054906101000a900460ff16905092915050565b600e6020528060005260406000206000915090505481565b6110d56112e5565b600073ffffffffffffffffffffffffffffffffffffffff168173ffffffffffffffffffffffffffffffffffffffff161415611145576040517f08c379a000000000000000000000000000000000000000000000000000000000815260040161113c906128ae565b60405180910390fd5b61114e8161165f565b50565b60007f01ffc9a7000000000000000000000000000000000000000000000000000000007bffffffffffffffffffffffffffffffffffffffffffffffffffffffff1916827bffffffffffffffffffffffffffffffffffffffffffffffffffffffff1916149050919050565b6111c4816118ee565b611203576040517f08c379a00000000000000000000000000000000000000000000000000000000081526004016111fa90612a4e565b60405180910390fd5b50565b600033905090565b816004600083815260200190815260200160002060006101000a81548173ffffffffffffffffffffffffffffffffffffffff021916908373ffffffffffffffffffffffffffffffffffffffff160217905550808273ffffffffffffffffffffffffffffffffffffffff1661128183610ca3565b73ffffffffffffffffffffffffffffffffffffffff167f8c5be1e5ebec7d5bd14f71427d1e84f3dd0314c0f7b2291e5b200ac8c7c3b92560405160405180910390a45050565b6112e1828260405180602001604052806000815250611b07565b5050565b6112ed611206565b73ffffffffffffffffffffffffffffffffffffffff1661130b610e4d565b73ffffffffffffffffffffffffffffffffffffffff1614611361576040517f08c379a000000000000000000000000000000000000000000000000000000000815260040161135890612a0e565b60405180910390fd5b565b60008061136f83610ca3565b90508073ffffffffffffffffffffffffffffffffffffffff168473ffffffffffffffffffffffffffffffffffffffff1614806113b157506113b08185611021565b5b806113ef57508373ffffffffffffffffffffffffffffffffffffffff166113d7846107d6565b73ffffffffffffffffffffffffffffffffffffffff16145b91505092915050565b8273ffffffffffffffffffffffffffffffffffffffff1661141882610ca3565b73ffffffffffffffffffffffffffffffffffffffff161461146e576040517f08c379a0000000000000000000000000000000000000000000000000000000008152600401611465906128ce565b60405180910390fd5b600073ffffffffffffffffffffffffffffffffffffffff168273ffffffffffffffffffffffffffffffffffffffff1614156114de576040517f08c379a00000000000000000000000000000000000000000000000000000000081526004016114d59061292e565b60405180910390fd5b6114e9838383611b62565b6114f460008261120e565b6001600360008573ffffffffffffffffffffffffffffffffffffffff1673ffffffffffffffffffffffffffffffffffffffff16815260200190815260200160002060008282546115449190612c49565b925050819055506001600360008473ffffffffffffffffffffffffffffffffffffffff1673ffffffffffffffffffffffffffffffffffffffff168152602001908152602001600020600082825461159b9190612bc2565b92505081905550816002600083815260200190815260200160002060006101000a81548173ffffffffffffffffffffffffffffffffffffffff021916908373ffffffffffffffffffffffffffffffffffffffff160217905550808273ffffffffffffffffffffffffffffffffffffffff168473ffffffffffffffffffffffffffffffffffffffff167fddf252ad1be2c89b69c2b068fc378daa952ba7f163c4a11628f55a4df523b3ef60405160405180910390a461165a838383611b67565b505050565b6000600660009054906101000a900473ffffffffffffffffffffffffffffffffffffffff16905081600660006101000a81548173ffffffffffffffffffffffffffffffffffffffff021916908373ffffffffffffffffffffffffffffffffffffffff1602179055508173ffffffffffffffffffffffffffffffffffffffff168173ffffffffffffffffffffffffffffffffffffffff167f8be0079c531659141344cd1fd0a4f28419497f9722a3daafe3b4186f6b6457e060405160405180910390a35050565b8173ffffffffffffffffffffffffffffffffffffffff168373ffffffffffffffffffffffffffffffffffffffff161415611794576040517f08c379a000000000000000000000000000000000000000000000000000000000815260040161178b9061296e565b60405180910390fd5b80600560008573ffffffffffffffffffffffffffffffffffffffff1673ffffffffffffffffffffffffffffffffffffffff16815260200190815260200160002060008473ffffffffffffffffffffffffffffffffffffffff1673ffffffffffffffffffffffffffffffffffffffff16815260200190815260200160002060006101000a81548160ff0219169083151502179055508173ffffffffffffffffffffffffffffffffffffffff168373ffffffffffffffffffffffffffffffffffffffff167f17307eab39ab6107e8899845ad3d59bd9653f200f220920489ca2b5937696c31836040516118859190612851565b60405180910390a3505050565b61189d8484846113f8565b6118a984848484611b6c565b6118e8576040517f08c379a00000000000000000000000000000000000000000000000000000000081526004016118df9061288e565b60405180910390fd5b50505050565b60008073ffffffffffffffffffffffffffffffffffffffff166002600084815260200190815260200160002060009054906101000a900473ffffffffffffffffffffffffffffffffffffffff1673ffffffffffffffffffffffffffffffffffffffff1614159050919050565b606060008214156119a2576040518060400160405280600181526020017f30000000000000000000000000000000000000000000000000000000000000008152509050611b02565b600082905060005b600082146119d45780806119bd90612da8565b915050600a826119cd9190612c18565b91506119aa565b60008167ffffffffffffffff811115611a16577f4e487b7100000000000000000000000000000000000000000000000000000000600052604160045260246000fd5b6040519080825280601f01601f191660200182016040528015611a485781602001600182028036833780820191505090505b5090505b60008514611afb57600182611a619190612c49565b9150600a85611a709190612df1565b6030611a7c9190612bc2565b60f81b818381518110611ab8577f4e487b7100000000000000000000000000000000000000000000000000000000600052603260045260246000fd5b60200101907effffffffffffffffffffffffffffffffffffffffffffffffffffffffffffff1916908160001a905350600a85611af49190612c18565b9450611a4c565b8093505050505b919050565b611b118383611d03565b611b1e6000848484611b6c565b611b5d576040517f08c379a0000000000000000000000000000000000000000000000000000000008152600401611b549061288e565b60405180910390fd5b505050565b505050565b505050565b6000611b8d8473ffffffffffffffffffffffffffffffffffffffff16611edd565b15611cf6578373ffffffffffffffffffffffffffffffffffffffff1663150b7a02611bb6611206565b8786866040518563ffffffff1660e01b8152600401611bd89493929190612805565b602060405180830381600087803b158015611bf257600080fd5b505af1925050508015611c2357506040513d601f19601f82011682018060405250810190611c2091906122b7565b60015b611ca6573d8060008114611c53576040519150601f19603f3d011682016040523d82523d6000602084013e611c58565b606091505b50600081511415611c9e576040517f08c379a0000000000000000000000000000000000000000000000000000000008152600401611c959061288e565b60405180910390fd5b805181602001fd5b63150b7a0260e01b7bffffffffffffffffffffffffffffffffffffffffffffffffffffffff1916817bffffffffffffffffffffffffffffffffffffffffffffffffffffffff191614915050611cfb565b600190505b949350505050565b600073ffffffffffffffffffffffffffffffffffffffff168273ffffffffffffffffffffffffffffffffffffffff161415611d73576040517f08c379a0000000000000000000000000000000000000000000000000000000008152600401611d6a906129ee565b60405180910390fd5b611d7c816118ee565b15611dbc576040517f08c379a0000000000000000000000000000000000000000000000000000000008152600401611db3906128ee565b60405180910390fd5b611dc860008383611b62565b6001600360008473ffffffffffffffffffffffffffffffffffffffff1673ffffffffffffffffffffffffffffffffffffffff1681526020019081526020016000206000828254611e189190612bc2565b92505081905550816002600083815260200190815260200160002060006101000a81548173ffffffffffffffffffffffffffffffffffffffff021916908373ffffffffffffffffffffffffffffffffffffffff160217905550808273ffffffffffffffffffffffffffffffffffffffff16600073ffffffffffffffffffffffffffffffffffffffff167fddf252ad1be2c89b69c2b068fc378daa952ba7f163c4a11628f55a4df523b3ef60405160405180910390a4611ed960008383611b67565b5050565b6000808273ffffffffffffffffffffffffffffffffffffffff163b119050919050565b828054611f0c90612d45565b90600052602060002090601f016020900481019282611f2e5760008555611f75565b82601f10611f4757803560ff1916838001178555611f75565b82800160010185558215611f75579182015b82811115611f74578235825591602001919060010190611f59565b5b509050611f829190611f86565b5090565b5b80821115611f9f576000816000905550600101611f87565b5090565b6000611fb6611fb184612b2e565b612b09565b905082815260208101848484011115611fce57600080fd5b611fd9848285612d03565b509392505050565b600081359050611ff081613356565b92915050565b6000813590506120058161336d565b92915050565b60008135905061201a81613384565b92915050565b60008151905061202f81613384565b92915050565b600082601f83011261204657600080fd5b8135612056848260208601611fa3565b91505092915050565b60008083601f84011261207157600080fd5b8235905067ffffffffffffffff81111561208a57600080fd5b6020830191508360018202830111156120a257600080fd5b9250929050565b6000813590506120b88161339b565b92915050565b6000602082840312156120d057600080fd5b60006120de84828501611fe1565b91505092915050565b600080604083850312156120fa57600080fd5b600061210885828601611fe1565b925050602061211985828601611fe1565b9150509250929050565b60008060006060848603121561213857600080fd5b600061214686828701611fe1565b935050602061215786828701611fe1565b9250506040612168868287016120a9565b9150509250925092565b6000806000806080858703121561218857600080fd5b600061219687828801611fe1565b94505060206121a787828801611fe1565b93505060406121b8878288016120a9565b925050606085013567ffffffffffffffff8111156121d557600080fd5b6121e187828801612035565b91505092959194509250565b6000806040838503121561220057600080fd5b600061220e85828601611fe1565b925050602061221f85828601611ff6565b9150509250929050565b6000806040838503121561223c57600080fd5b600061224a85828601611fe1565b925050602061225b858286016120a9565b9150509250929050565b60006020828403121561227757600080fd5b600061228584828501611ff6565b91505092915050565b6000602082840312156122a057600080fd5b60006122ae8482850161200b565b91505092915050565b6000602082840312156122c957600080fd5b60006122d784828501612020565b91505092915050565b600080602083850312156122f357600080fd5b600083013567ffffffffffffffff81111561230d57600080fd5b6123198582860161205f565b92509250509250929050565b60006020828403121561233757600080fd5b6000612345848285016120a9565b91505092915050565b61235781612c8f565b82525050565b61236681612c7d565b82525050565b61237581612ca1565b82525050565b600061238682612b74565b6123908185612b8a565b93506123a0818560208601612d12565b6123a981612ede565b840191505092915050565b60006123bf82612b7f565b6123c98185612ba6565b93506123d9818560208601612d12565b6123e281612ede565b840191505092915050565b60006123f882612b7f565b6124028185612bb7565b9350612412818560208601612d12565b80840191505092915050565b6000815461242b81612d45565b6124358186612bb7565b94506001821660008114612450576001811461246157612494565b60ff19831686528186019350612494565b61246a85612b5f565b60005b8381101561248c5781548189015260018201915060208101905061246d565b838801955050505b50505092915050565b60006124aa603283612ba6565b91506124b582612eef565b604082019050919050565b60006124cd602683612ba6565b91506124d882612f3e565b604082019050919050565b60006124f0602583612ba6565b91506124fb82612f8d565b604082019050919050565b6000612513601c83612ba6565b915061251e82612fdc565b602082019050919050565b6000612536601783612ba6565b915061254182613005565b602082019050919050565b6000612559602483612ba6565b91506125648261302e565b604082019050919050565b600061257c601283612ba6565b91506125878261307d565b602082019050919050565b600061259f601983612ba6565b91506125aa826130a6565b602082019050919050565b60006125c2602983612ba6565b91506125cd826130cf565b604082019050919050565b60006125e5601283612ba6565b91506125f08261311e565b602082019050919050565b6000612608603e83612ba6565b915061261382613147565b604082019050919050565b600061262b602083612ba6565b915061263682613196565b602082019050919050565b600061264e600583612bb7565b9150612659826131bf565b600582019050919050565b6000612671602083612ba6565b915061267c826131e8565b602082019050919050565b6000612694601883612ba6565b915061269f82613211565b602082019050919050565b60006126b7601883612ba6565b91506126c28261323a565b602082019050919050565b60006126da602183612ba6565b91506126e582613263565b604082019050919050565b60006126fd600083612b9b565b9150612708826132b2565b600082019050919050565b6000612720602e83612ba6565b915061272b826132b5565b604082019050919050565b6000612743601483612ba6565b915061274e82613304565b602082019050919050565b6000612766600f83612ba6565b91506127718261332d565b602082019050919050565b61278581612cf9565b82525050565b6000612797828561241e565b91506127a382846123ed565b91506127ae82612641565b91508190509392505050565b60006127c5826126f0565b9150819050919050565b60006020820190506127e4600083018461235d565b92915050565b60006020820190506127ff600083018461234e565b92915050565b600060808201905061281a600083018761235d565b612827602083018661235d565b612834604083018561277c565b8181036060830152612846818461237b565b905095945050505050565b6000602082019050612866600083018461236c565b92915050565b6000602082019050818103600083015261288681846123b4565b905092915050565b600060208201905081810360008301526128a78161249d565b9050919050565b600060208201905081810360008301526128c7816124c0565b9050919050565b600060208201905081810360008301526128e7816124e3565b9050919050565b6000602082019050818103600083015261290781612506565b9050919050565b6000602082019050818103600083015261292781612529565b9050919050565b600060208201905081810360008301526129478161254c565b9050919050565b600060208201905081810360008301526129678161256f565b9050919050565b6000602082019050818103600083015261298781612592565b9050919050565b600060208201905081810360008301526129a7816125b5565b9050919050565b600060208201905081810360008301526129c7816125d8565b9050919050565b600060208201905081810360008301526129e7816125fb565b9050919050565b60006020820190508181036000830152612a078161261e565b9050919050565b60006020820190508181036000830152612a2781612664565b9050919050565b60006020820190508181036000830152612a4781612687565b9050919050565b60006020820190508181036000830152612a67816126aa565b9050919050565b60006020820190508181036000830152612a87816126cd565b9050919050565b60006020820190508181036000830152612aa781612713565b9050919050565b60006020820190508181036000830152612ac781612736565b9050919050565b60006020820190508181036000830152612ae781612759565b9050919050565b6000602082019050612b03600083018461277c565b92915050565b6000612b13612b24565b9050612b1f8282612d77565b919050565b6000604051905090565b600067ffffffffffffffff821115612b4957612b48612eaf565b5b612b5282612ede565b9050602081019050919050565b60008190508160005260206000209050919050565b600081519050919050565b600081519050919050565b600082825260208201905092915050565b600081905092915050565b600082825260208201905092915050565b600081905092915050565b6000612bcd82612cf9565b9150612bd883612cf9565b9250827fffffffffffffffffffffffffffffffffffffffffffffffffffffffffffffffff03821115612c0d57612c0c612e22565b5b828201905092915050565b6000612c2382612cf9565b9150612c2e83612cf9565b925082612c3e57612c3d612e51565b5b828204905092915050565b6000612c5482612cf9565b9150612c5f83612cf9565b925082821015612c7257612c71612e22565b5b828203905092915050565b6000612c8882612cd9565b9050919050565b6000612c9a82612cd9565b9050919050565b60008115159050919050565b60007fffffffff0000000000000000000000000000000000000000000000000000000082169050919050565b600073ffffffffffffffffffffffffffffffffffffffff82169050919050565b6000819050919050565b82818337600083830152505050565b60005b83811015612d30578082015181840152602081019050612d15565b83811115612d3f576000848401525b50505050565b60006002820490506001821680612d5d57607f821691505b60208210811415612d7157612d70612e80565b5b50919050565b612d8082612ede565b810181811067ffffffffffffffff82111715612d9f57612d9e612eaf565b5b80604052505050565b6000612db382612cf9565b91507fffffffffffffffffffffffffffffffffffffffffffffffffffffffffffffffff821415612de657612de5612e22565b5b600182019050919050565b6000612dfc82612cf9565b9150612e0783612cf9565b925082612e1757612e16612e51565b5b828206905092915050565b7f4e487b7100000000000000000000000000000000000000000000000000000000600052601160045260246000fd5b7f4e487b7100000000000000000000000000000000000000000000000000000000600052601260045260246000fd5b7f4e487b7100000000000000000000000000000000000000000000000000000000600052602260045260246000fd5b7f4e487b7100000000000000000000000000000000000000000000000000000000600052604160045260246000fd5b6000601f19601f8301169050919050565b7f4552433732313a207472616e7366657220746f206e6f6e20455243373231526560008201527f63656976657220696d706c656d656e7465720000000000000000000000000000602082015250565b7f4f776e61626c653a206e6577206f776e657220697320746865207a65726f206160008201527f6464726573730000000000000000000000000000000000000000000000000000602082015250565b7f4552433732313a207472616e736665722066726f6d20696e636f72726563742060008201527f6f776e6572000000000000000000000000000000000000000000000000000000602082015250565b7f4552433732313a20746f6b656e20616c7265616479206d696e74656400000000600082015250565b7f7075626c6963206d696e742069732064697361626c6564000000000000000000600082015250565b7f4552433732313a207472616e7366657220746f20746865207a65726f2061646460008201527f7265737300000000000000000000000000000000000000000000000000000000602082015250565b7f4e465420616c7265616479206d696e7465640000000000000000000000000000600082015250565b7f4552433732313a20617070726f766520746f2063616c6c657200000000000000600082015250565b7f4552433732313a2061646472657373207a65726f206973206e6f74206120766160008201527f6c6964206f776e65720000000000000000000000000000000000000000000000602082015250565b7f6d617820737570706c7920726561636865640000000000000000000000000000600082015250565b7f4552433732313a20617070726f76652063616c6c6572206973206e6f7420746f60008201527f6b656e206f776e6572206e6f7220617070726f76656420666f7220616c6c0000602082015250565b7f4552433732313a206d696e7420746f20746865207a65726f2061646472657373600082015250565b7f2e6a736f6e000000000000000000000000000000000000000000000000000000600082015250565b7f4f776e61626c653a2063616c6c6572206973206e6f7420746865206f776e6572600082015250565b7f6d696e7420707269636520697320302e30322065746865720000000000000000600082015250565b7f4552433732313a20696e76616c696420746f6b656e2049440000000000000000600082015250565b7f4552433732313a20617070726f76616c20746f2063757272656e74206f776e6560008201527f7200000000000000000000000000000000000000000000000000000000000000602082015250565b50565b7f4552433732313a2063616c6c6572206973206e6f7420746f6b656e206f776e6560008201527f72206e6f7220617070726f766564000000000000000000000000000000000000602082015250565b7f746f6b656e20646f6573206e6f74206578697374000000000000000000000000600082015250565b7f7769746864726177206661696c65640000000000000000000000000000000000600082015250565b61335f81612c7d565b811461336a57600080fd5b50565b61337681612ca1565b811461338157600080fd5b50565b61338d81612cad565b811461339857600080fd5b50565b6133a481612cf9565b81146133af57600080fd5b5056fea26469706673582212200b5593b7d591cf0cd53255025b6eadef478210f467cec3ddc3a0f5c072644c2864736f6c63430008040033",
  "linkReferences": {},
  "deployedLinkReferences": {}
}